:020000040800F2
:10000000280900204D020008550200085702000888
:10001000590200085B0200085D02000800000000B1
:100020000000000000000000000000005F02000867
:100030006102000800000000630200086502000879
:1000400067020008670200086702000867020008EC
:1000500067020008670200080B0500086702000835
:1000600067020008670200086702000867020008CC
:1000700067020008670200086702000867020008BC
:1000800067020008670200086702000867020008AC
:10009000670200086702000867020008670200089C
:1000A000670200086702000867020008670200088C
:1000B000670200086702000867020008670200087C
:1000C000670200086702000867020008670200086C
:1000D000670200086702000867020008051D0008A3
:1000E000670200086702000867020008670200084C
:1000F000670200086702000867020008670200083C
:10010000670200086702000867020008670200082B
:10011000670200086702000867020008670200081B
:10012000670200086702000867020008670200080B
:1001300067020008670200086702000867020008FB
:1001400067020008670200086702000867020008EB
:1001500067020008670200086702000867020008DB
:1001600067020008670200086702000867020008CB
:1001700067020008670200086702000867020008BB
:1001800067020008670200086702000867020008AB
:10019000670200086702000867020008670200089B
:1001A00067020008670200086702000800F002F812
:1001B00000F03CF80AA090E8000C82448344AAF1C5
:1001C0000107DA4501D100F031F8AFF2090EBAE8C3
:1001D0000F0013F0010F18BFFB1A43F0010318477B
:1001E000785A0000985A0000103A24BF78C878C1A5
:1001F000FAD8520724BF30C830C144BF04680C602D
:10020000704700000023002400250026103A28BF74
:1002100078C1FBD8520728BF30C148BF0B60704778
:100220001FB502F075FE1FBD10B510BD00F034F90A
:100230001146FFF7F5FF02F09FF800F052F903B402
:10024000FFF7F2FF03BC00F059F9000009488047AE
:1002500009480047FEE7FEE7FEE7FEE7FEE7FEE7A8
:10026000FEE7FEE7FEE7FEE704480549054A064BC0
:10027000704700009D1C0008AD0100082803002005
:1002800028090020280500202805002010B54C1062
:1002900084EA530404D54042C1F1000138BF491E2D
:1002A0001B4204D55242C3F1000338BF5B1E00F06D
:1002B00055F814F0804F04D04042C1F1000138BF1E
:1002C000491E14F0004F04D05242C3F1000338BF5E
:1002D0005B1E10BD10B5431C02E010F8011B71B18C
:1002E0008107FAD14FF0013202C88C1A8C4314EA0C
:1002F000C211F9D0C01A0A0603D0C01E10BDC01A20
:1003000010BD0A0401D0801E10BD0902FCD0401EA1
:1003100010BD4FF000020429C0F0128010F0030C51
:1003200000F09580CCF1040CBCF1020F18BF00F86E
:10033000012BA8BF20F8022BA1EB0C0100F087B81D
:100340005FEAC17C24BF00F8012B00F8012B48BFF5
:1003500000F8012B704770477047704753EA020C52
:1003600000F069802DE9F04B4FF00006002B1FBF15
:10037000B3FA83F503FA05F424FA05F65E4012BFDA
:100380001643B2FA82F502FA05F4C5F120051EBF44
:1003900022FA05FC44EA0C04203556EA044C4FEAE4
:1003A000144418BF641C4FF000084FF0000990423D
:1003B00071EB030C39D3002919BFB1FA81F701FAA7
:1003C00007F6B0FA80F700FA07F6C7F120071EBF5C
:1003D00020FA07FC46EA0C062037B6FBF4FCA7EB34
:1003E0000507103F07F01F0BCBF120060CFA0BFBA3
:1003F0002CFA06F644BFB3460026202FA4BF5E4663
:100400004FF0000B5BEA060C08BF4FF0010B19EB35
:100410000B09ABFB027C48EB0608C01B06FB02CCB9
:100420000BFB03CC71EB0C01C1E70B4602464146C6
:100430004846BDE8F08B13B54FF000004FF00001C7
:10044000AFF30080BDE81C4070474FF0000200B5DC
:10045000134694469646203922BFA0E80C50A0E8E7
:100460000C50B1F12001BFF4F7AF090728BFA0E895
:100470000C5048BF0CC05DF804EB890028BF40F861
:10048000042B08BF704748BF20F8022B11F0804FA3
:1004900018BF00F8012B7047754600F02BF8AE46E8
:1004A00005006946534620F00700854618B020B580
:1004B000FFF7DAFEBDE820404FF000064FF00007DE
:1004C0004FF000084FF0000B21F00701AC46ACE8FC
:1004D000C009ACE8C009ACE8C009ACE8C0098D4669
:1004E000704710B50446AFF300802046BDE81040C9
:1004F000FFF7A5BE00487047C80200200149182038
:10050000ABBEFEE726000200704710B501F09AFE70
:1005100010BD00000149086070470000143C014014
:1005200001460020034A12680A400AB1012000E097
:1005300000207047143C0140002123498279002AA1
:100540003AD00A46126803689A430B461A600A1D9D
:10055000126803689A430B1D1A60027911440A68F5
:1005600003681A430A60184A0832126803689A43FB
:10057000154B08331A601A1D126803689A43124B10
:100580000C331A604279102A0ED11A1F12680368C0
:100590001A430D4B08331A601A1D126803681A4378
:1005A000094B0C331A600DE00749427911440A687F
:1005B00003681A430A6005E0027911440A68036877
:1005C0009A430A6070470000003C014010B50246A3
:1005D00000200023102A03D14FF02044636E0FE067
:1005E000B2F5807F02D10A4C236809E0B2F5805F42
:1005F00003D1074C2034236802E0054CD43423682F
:1006000003EA01048C4201D0002000E0012010BD6B
:10061000840000A00021D0E900231A4383685B1EF8
:1006200042EA4312C36842EA4321014A116070471B
:10063000500100A070B50021002200230024D0E961
:1006400001563543C6683543066935434669354327
:1006500086693543C6693543066A3543466A45EAC5
:100660000601056835B90568AD00A5F1C045C5F8B6
:1006700040110DE0D0E907563543466A45EA0603C6
:10068000294D2B600568AD00A5F1C045C5F84011A6
:10069000056835BB856A2D686D1E866A7668761E8C
:1006A00045EA0616856AAD686D1E46EA0526856A26
:1006B000ED686D1E46EA0536856A2D8A6D1E46EA8E
:1006C0000546856AAD8A6D1E46EA0556856A2D7E09
:1006D0006D1E46EA0562144D0835066845F8262069
:1006E00020E0856A2D686D1E866A7668761E45EA6A
:1006F0000616856AAD686D1E46EA0526856A2D8A4E
:100700006D1E46EA0542856AED686D1E2E03856AF8
:10071000AD8A6D1E46EA0554034D08352C60066807
:1007200045F8262070BD0000400100A0044909687A
:1007300041EA40014FF02042C2F8541170470000D6
:10074000540100A0F0B50A4600210023002400BF98
:100750003DE0012505FA01F3156805EA03049C4212
:1007600034D105684F000326BE40B54305601579B6
:100770004E00B5400668354305601579012D02D05D
:100780001579022D16D185684F000326BE40B5436A
:10079000856055794E00B54086683543856045686B
:1007A00001268E40B5434560456896798E40B6B2C5
:1007B00035434560C5684F000326BE40B543C5605C
:1007C000D5794E00B540C6683543C560491C10292F
:1007D000BFD3F0BDF0B5002300244D07ED0E02FAA3
:1007E00005F3CE1000F1200555F826504E07F70E00
:1007F0000F26BE40B543CF1000F1200646F8275023
:10080000CE1000F1200555F8265045EA0304CE101D
:1008100000F1200545F82640F0BD41837047018373
:1008200070474FF6FF7101600021017141718171C4
:10083000C17170470AB1018300E041837047000035
:100840001CB501216F2000F03FFE0E22032150480D
:10085000FFF7C0FF0E2204214D48FFF7BBFF0E2219
:1008600006214B48FFF7B6FF0E220B214848FFF741
:10087000B1FF0E220C214648FFF7ACFF41F65800AD
:10088000009002208DF805008DF8040000208DF8FE
:1008900006008DF8070069463D48FFF753FF09221F
:1008A00000213C48FFF796FF092201213948FFF754
:1008B00091FF0E2208213748FFF78CFF0E220921F5
:1008C0003448FFF787FF0E220A213248FFF782FFE4
:1008D0000E220B212F48FFF77DFF40F6037000909A
:1008E00069462C48FFF72EFF0E2206212A48FFF703
:1008F00071FF0E2207212848FFF76CFF0E220A2104
:100900002548FFF767FF4FF498600090694622483A
:10091000FFF718FF0E2203212048FFF75BFF0E228E
:1009200006211E48FFF756FF4820009069461B48E5
:10093000FFF708FF0E220A211948FFF74BFF4FF47B
:100940008060009069461648FFF7FCFE0E220621E3
:100950001448FFF73FFF0E2207211248FFF73AFF26
:1009600009220A210F48FFF735FF0E220B210D48FF
:10097000FFF730FF09220C210A48FFF72BFF4FF445
:10098000E650009069460748FFF7DCFE1CBD0000FA
:10099000000002400004024000080240000C024037
:1009A000001402400018024010B5044624B9042186
:1009B0000448FFF732FF03E004210248FFF72FFF4E
:1009C00010BD0000000802400146002000BF04E006
:1009D000044B1B6823F81010401CB0F5A02FF7D370
:1009E00070470000B00000201CB501210C2000F071
:1009F0006BFD0420009002208DF8050001208DF889
:100A0000040000208DF806008DF8070069460848AC
:100A1000FFF798FE4FF40050009069460548FFF735
:100A200091FE01220421024800F006F81CBD0000DE
:100A300000080240000C024070B504460D46164600
:100A4000324629462046FFF7F5FE70BD70B50546D3
:100A50000E461446A4F12000C4B20748006801689D
:100A600005480068C088604301EB400231462846D3
:100A700000F02EF870BD0000A800002070B50646FA
:100A80000C4600250AE0227829463046FFF7DEFFB3
:100A90000E4800688088284485B2641CF02D14DA62
:100AA0000A4800688088284480B208490968898813
:100AB000884201DB012000E00020217809B10121FA
:100AC00000E0002108400028DDD170BDA800002012
:100AD0002DE9F04104460D46134600BF002200BF39
:100AE0000020C4EB04177E01284400214DE00022C1
:100AF0003FE0294F3F68BF884FF00C0C97FBFCF795
:100B00004FEAC70C802707FA0CF7174133F811C0DA
:100B100007EA0C0727B9204F3F68BF880C2F0DDD6F
:100B200033F811704FF0010C0CFA02FC07EA0C07C5
:100B30008FB9194F3F68BF880C2F0CDD174F3F88C6
:100B4000DFF85CC0DCF800C04FF0020808FB00CC06
:100B50002CF806700BE0134F3F88DFF844C0DCF838
:100B600000C04FF0020808FB00CC2CF80670401CB7
:100B7000521C094F3F68BF889742BAD8064F3F685A
:100B8000BF88C7F1F0073844491C034F3F68FF880E
:100B90008F42ACD8BDE8F081A8000020AE00002054
:100BA000B0000020AC000020014800687047000041
:100BB000A800002000B58FB0FFF716FF0020FFF758
:100BC000F3FE0120FFF7F0FE00F0DAF900F092F8F2
:100BD0000121880600F0B8FC0121C80500F074FC72
:100BE000FFF72EFE00F084FE00200090019002909E
:100BF00003900C900D900E9004220721C02000F06D
:100C000069FD4FF4003000F053FD012000F05CFD61
:100C100000BF3D2000F02CFD0028FAD009200490F0
:100C2000012005901D2006900320079040F20D1032
:100C3000089040F24310099040F217100A9040F2D9
:100C400047100B90684600F099FA0FB000BD000005
:100C500000B591B01E20019040F20D1002900420CA
:100C6000039040F24310049002200590FF2006906C
:100C700000200790089009900A904FF480600B9034
:100C800005200C9040F2E3100E90C01E0F904FF420
:100C9000A07010904FF050400D9001A9124800F044
:100CA0003CFB12480D904FF4C0600B9007200C9055
:100CB00001A90D48803000F030FB012000F0B8FBA6
:100CC0000121094800F01EFB01210748803000F097
:100CD00019FB012000F0ACFB054800F0C5F901202C
:100CE00000F03AFA11B000BD84680140000005D060
:100CF0008800002010B5CA2000F0D2F9C32000F00F
:100D0000F5F9082000F0F2F9502000F0EFF9CF20BB
:100D100000F0C6F9002000F0E9F9C12000F0E6F982
:100D2000302000F0E3F9ED2000F0BAF9642000F083
:100D3000DDF9032000F0DAF9122000F0D7F9812064
:100D400000F0D4F9E82000F0ABF9852000F0CEF9EE
:100D5000002000F0CBF9782000F0C8F9CB2000F09B
:100D60009FF9392000F0C2F92C2000F0BFF90020D3
:100D700000F0BCF9342000F0B9F9022000F0B6F917
:100D8000F72000F08DF9202000F0B0F9EA2000F003
:100D900087F9002000F0AAF9002000F0A7F9B1209F
:100DA00000F07EF9002000F0A1F91B2000F09EF970
:100DB000B62000F075F90A2000F098F9A22000F0A2
:100DC00095F9C02000F06CF9102000F08FF9C120D7
:100DD00000F066F9102000F089F9C52000F060F9F4
:100DE000452000F083F9152000F080F9C72000F0BD
:100DF00057F9902000F07AF9362000F051F9C82018
:100E000000F074F9F22000F04BF9002000F06EF9C8
:100E1000B02000F045F9C22000F068F9B62000F0DB
:100E20003FF90A2000F062F9A72000F05FF92720BF
:100E300000F05CF9042000F059F92A2000F030F9A4
:100E4000002000F053F9002000F050F9002000F0DD
:100E50004DF9EF2000F04AF92B2000F021F9002095
:100E600000F044F9002000F041F9012000F03EF9C3
:100E70003F2000F03BF9F62000F012F9012000F0CD
:100E800035F9002000F032F9062000F02FF92C206F
:100E900000F006F9C82001F0A7F8262000F000F9BC
:100EA000012000F023F9E02000F0FAF80F2000F014
:100EB0001DF9292000F01AF9242000F017F90C2060
:100EC00000F014F90E2000F011F9092000F00EF9DD
:100ED0004E2000F00BF9782000F008F93C2000F0DB
:100EE00005F9092000F002F9132000F0FFF80520B1
:100EF00000F0FCF8172000F0F9F8112000F0F6F8E7
:100F0000002000F0F3F8E12000F0CAF8002000F023
:100F1000EDF8162000F0EAF81B2000F0E7F80420B6
:100F200000F0E4F8112000F0E1F8072000F0DEF80E
:100F3000312000F0DBF8332000F0D8F8422000F038
:100F4000D5F8052000F0D2F80C2000F0CFF80A20E8
:100F500000F0CCF8282000F0C9F82F2000F0C6F8E7
:100F60000F2000F0C3F8112000F09AF8C82001F01B
:100F70003BF8292000F094F82C2000F091F810BDE7
:100F800000B587B00121202000F09EFA012108055C
:100F900000F0DAFA8020009001208DF80500022090
:100FA0008DF8040000208DF8060002208DF807005F
:100FB00069462648FFF7C6FB4FF4807000906946EB
:100FC0002248FFF7BFFB4FF40070009069461F48AE
:100FD000FFF7B8FB052207211C48FFF7FBFB0522A2
:100FE00008211A48FFF7F6FB052209211748FFF7E9
:100FF000F1FB174800F020FD1548008800F0400084
:1010000010BB0020ADF808004FF48270ADF80A0064
:101010000020ADF80C00ADF80E00ADF810004FF454
:101020000070ADF812001820ADF814000020ADF8E3
:1010300016000720ADF8180002A9054800F05FFD72
:101040000121034800F0ECFC07B000BD0014024091
:1010500000500140024A1080024A1180704700008F
:10106000AC000020AE00002001490860704700007D
:10107000A800002038B94FF05041064A1160002105
:10108000054A116005E00549024A11600121024A42
:1010900011607047B0000020B4000020000005D0AF
:1010A00010B5044600224FF400510E48FFF7C4FC6F
:1010B0000020FFF779FC21460B4800F01EFD00BF21
:1010C0000221094800F010FD0028F9D000BF80215E
:1010D000054800F009FD0028F9D10120FFF764FC64
:1010E00010BD0000000C02400050014010B5044645
:1010F000012251030D48FFF79FFC0020FFF754FC2D
:1011000021460B4800F0F9FC00BF0221084800F01E
:10111000EBFC0028F9D000BF8021054800F0E4FC7A
:101120000028F9D10120FFF73FFC10BD000C024060
:101130000050014030B10749096841F00101054AFA
:10114000116005E00349096821F00101014A1160BD
:10115000704700001868014030B10749096841F440
:101160008031054A116005E00349096821F48031A6
:10117000014A11607047000018680140F0B5002175
:10118000002200230024002500265B4F3F68DFF883
:101190006CC107EA0C07DFF860C1CCF80070078A61
:1011A000390467463F68D0F814C04CEA010C47EA9E
:1011B0000C07DFF844C1CCF800700CF104073F685D
:1011C000DFF838C107EA0C07DFF82CC10CF1040C7A
:1011D000CCF80070078B3A0467463F68D0F81CC013
:1011E0004CEA020C47EA0C07DFF80CC10CF1040CC6
:1011F000CCF800700CF104073F68DFF800C107EA83
:101200000C07DFF8F4C00CF1080CCCF80070078C68
:101210003B0467463F68D0F824C04CEA030C47EA19
:101220000C07DFF8D4C00CF1080CCCF800700CF1FE
:1012300004073F68DFF8C4C007EA0C07DFF8B8C04E
:101240000CF10C0CCCF80070078D3C046746D7F805
:1012500000C0C76A27434CEA070C274F0C37C7F872
:1012600000C03F1D3F68DFF898C007EA0C07DFF8B1
:1012700088C00CF1100CCCF80070D0E9007C47EA73
:101280000C07D0F808C047EA0C07D0F80CC047EAB2
:101290000C07DFF864C00CF1100CDCF800C047EA62
:1012A0000C07DFF854C00CF1100CCCF80070476B41
:1012B0003D02078E3E04104F24373F6807F07F47FA
:1012C000DFF834C00CF1240CCCF8007046EA0507B6
:1012D000D0F838C047EA0C07DFF81CC00CF1240C2A
:1012E000DCF800C047EA0C07DFF80CC00CF1240C56
:1012F000CCF80070F0BD00000868014000F800F074
:101300008F88FE0F21B1026842F00102026003E003
:10131000026822F00102026070472DE9F0410024CA
:1013200000250026002200270023B1F804C04FEA60
:101330000C44D0F804C00CF4704CC0F804C0D1F8D0
:1013400000C04CEA040CC0F804C0B1F80CC04FEA6D
:101350000C45D0F808C00CF4704CC0F808C0D1F8A7
:1013600008C04CEA050CC0F808C0D0F810C02CF03A
:10137000070CC0F810C0D1F810C0C0F810C0D1F8E8
:101380001CC04FEA0C26B1F820C04FEA0C4291F87D
:1013900024C04FEA0C67D0F818C09C46C0F818C0AB
:1013A000D1F818C04CEA060C4CEA020C4CEA070CC7
:1013B000C0F818C0D0F814C02CF0FF0CC0F814C04E
:1013C000D1F814C0C0F814C0D0F81CC040F207789F
:1013D0002CEA080CC0F81CC0D1E90AC84CEA080C79
:1013E000C0F81CC0D0F828C09C46C0F828C0D1F86E
:1013F00030C0C0F828C0B1F838C04FEA0C43D0F86C
:101400002CC00CF0E02CC0F82CC0D1F834C04CEA51
:10141000030CC0F82CC0D0F830C06FF30A0CC0F831
:1014200030C0D1F83CC0C0F830C0BDE8F081000049
:1014300001490860704700002468014070B5002130
:1014400000230F22C4781CB3174C246804F4E06412
:10145000C4F5E064C4F30721C1F10404E3B20A4116
:1014600044789C40E1B28478144021430C07210E5B
:101470000E4C05786155047804F01F050124AC403A
:1014800005786D11AD0005F1E025C5F8004109E0D2
:10149000047804F01F050124AC40054D0678761150
:1014A00045F8264070BD00000CED00E000E400E0CF
:1014B00080E100E002490143024A116070470000E8
:1014C0000000FA050CED00E029B1064A126802435B
:1014D000044B1A6004E0034A12688243014B1A600D
:1014E000704700003038024029B1064A12680243B2
:1014F000044B1A6004E0034A12688243014B1A60ED
:10150000704700003838024029B1064A1268024389
:10151000044B1A6004E0034A12688243014B1A60CC
:10152000704700004038024029B1064A1268024361
:10153000044B1A6004E0034A12688243014B1A60AC
:10154000704700002038024029B1064A1268024361
:10155000044B1A6004E0034A12688243014B1A608C
:10156000704700004438024029B1064A126802431D
:10157000044B1A6004E0034A12688243014B1A606C
:101580007047000024380240F0B5002100220024FA
:10159000022500260223324F3F6807F00C0121B1DB
:1015A000042905D0082937D105E02E4F076036E021
:1015B0002D4F076033E02A4F3F1F3F68C7F3805627
:1015C000274F3F1F3F6807F03F036EB1264FB7FB21
:1015D000F3F7DFF88CC0ACF1040CDCF800C0CCF3FE
:1015E000881C07FB0CF40CE01E4FB7FBF3F7DFF889
:1015F00070C0ACF1040CDCF800C0CCF3881C07FB15
:101600000CF4174F3F1F3F68C7F301477F1C7D0055
:10161000B4FBF5F7076002E0124F076000BF00BFA0
:101620000F4F3F6807F0F0010909104F7A5C076817
:10163000D74047600A4F3F6807F4E051890A0B4FD3
:101640007A5C4768D7408760054F3F6807F4604180
:10165000490B064F7A5C4768D740C760F0BD000071
:10166000083802400024F40000127A000000002034
:1016700010B501460022002300204A11012A02D1A0
:101680000A4C236808E0022A03D1084C703423680E
:1016900002E0064C7434236801F01F0201249440D8
:1016A0001C400CB1012000E0002010BD00380240B9
:1016B00001460020034A106820F4403008431060BF
:1016C000704700008C3802400149086770470000ED
:1016D0000000474210B5830143EA016343EA027305
:1016E000014C236010BD0000883802401CB5012168
:1016F0007E20FFF7E9FE02208DF804008DF805003A
:1017000000208DF806008DF807000C220521724894
:10171000FFF760F80C2206216F48FFF75BF86020A6
:10172000009069466C48FFF70DF80C2200216B48C9
:10173000FFF750F80120009069466848FFF702F86B
:101740000C2200216648FFF745F80C22012164486D
:10175000FFF740F80C2208216148FFF73BF80C2204
:1017600009215F48FFF736F80C220A215C48FFF791
:1017700031F80C220E215A48FFF72CF80C220F21C9
:101780005748FFF727F84CF2037000906946544819
:10179000FEF7D8FF0C2200215248FFF71BF80C225D
:1017A00001215048FFF716F80C2207214D48FFF79A
:1017B00011F80C2208214B48FFF70CF80C220921E4
:1017C0004848FFF707F80C220A214648FFF702F8BD
:1017D0000C220B214348FEF7FDFF0C221146414825
:1017E000FEF7F8FF0C220D213E48FEF7F3FF0C2216
:1017F0000E213C48FEF7EEFF0C220F213948FEF780
:10180000E9FF4FF68370009069463648FEF79AFF6D
:101810000C2200213448FEF7DDFF0C220121324862
:10182000FEF7D8FF0C2202212F48FEF7D3FF0C222F
:1018300003212D48FEF7CEFF0C2204212A48FEF793
:10184000C9FF0C2205212848FEF7C4FF0C220B21FA
:101850002548FEF7BFFF0C2211462348FEF7BAFFCA
:101860000C220D212048FEF7B5FF0C220E211E4848
:10187000FEF7B0FF0C220F211B48FEF7ABFF4FF61F
:101880003F00009069461848FEF75CFF0C220021DB
:101890001648FEF79FFF0C2201211448FEF79AFF1D
:1018A0000C2204211148FEF795FF0C2205210F4858
:1018B000FEF790FF0C2208210C48FEF78BFF0C224C
:1018C0000F210A48FEF786FF48F233100090694660
:1018D0000648FEF737FF1CBD000402400008024026
:1018E000000C0240001002400014024000180240A8
:1018F00000B593B0FFF7FAFE01210846FFF7F4FDAB
:1019000002200190072002900420039007200490F9
:101910000220059006900790012008900020099071
:1019200004200A9010200B9040200C904FF4C070BF
:101930000D9000200E904FF400600F90002010904A
:101940004FF40050119001A8129008A8FEF772FE03
:1019500000F002F813B000BD1FB500240120009074
:1019600008200190012002900020039000BF202158
:101970000120FEF72BFE0028F9D16846FEF74AFE4B
:101980000A2000F03FFB0220009008200190012077
:1019900002900020039000BF20210120FEF716FED8
:1019A0000028F9D16846FEF735FE03200090082094
:1019B0000190042002900020039000BF202101200C
:1019C000FEF704FE0028F9D16846FEF723FE00BFAB
:1019D00020210120FEF7FAFD0028F9D16846FEF724
:1019E00019FE40F2312404200090082001900120CB
:1019F0000290039400BF20210120FEF7E7FD00289C
:101A0000F9D16846FEF706FE40F26A50FEF78EFEF8
:101A100000BF20210120FEF7D9FD0028F9D11FBD0C
:101A200021B1028842F04002028004E002884FF6B1
:101A3000BF731A400280704710B5044624488442A0
:101A400008D101218014FFF78FFD0021A014FFF7BA
:101A50008BFD3CE01F48844208D101210014FFF7B0
:101A600063FD00212014FFF75FFD30E01A48844237
:101A700008D10121C013FFF757FD0021E013FFF744
:101A800053FD24E01548844208D101214014FFF79A
:101A90006BFD00216014FFF767FD18E010488442D9
:101AA00009D101210805FFF75FFD00214FF48010E7
:101AB000FFF75AFD0BE00B48844208D1012148058D
:101AC000FFF752FD00214FF40010FFF74DFD10BD50
:101AD0000030014000380040003C0040003401402C
:101AE00000500140005401400246002013890B4081
:101AF0000BB1012000E0002070478181704710B5D4
:101B00000022028802F441520B884C8823438C88BF
:101B10002343CC8823430C8923434C8923438C895A
:101B20002343CC8923431A430280838B4FF2FF74F3
:101B3000234083830B8A038210BD000030B500224E
:101B40008B071C0F0F2303FA04F20B4B8C1053F876
:101B500024309343084C8D1044F8253023468C10D4
:101B600053F824308C07240F00FA04F42343024C6A
:101B70008D1044F8253030BD083801400CB50020E8
:101B8000019000904148006840F480303F4908606F
:101B900000BF3E48006800F4003000900198401CEF
:101BA0000190009818B90198B0F5A04FF1D13748CD
:101BB000006800F4003010B10120009001E0002026
:101BC00000900098012860D130484030006840F013
:101BD00080502E49403108602D48006840F4404054
:101BE0002B490860294808300068284908310860F6
:101BF0000846006840F4004008600846006840F469
:101C0000A05008602348091F0860081F006840F0C2
:101C10008070091F086000BF1C48006800F0007059
:101C20000028F9D01A48006840F48030184908604C
:101C300000BF1748406800F480300028F9D01448ED
:101C4000006840F400301249086000BF1048406846
:101C500000F400300028F9D040F205700E49086009
:101C60000A480830006820F003000849083108607D
:101C70000846006840F00200086000BF03480830D2
:101C8000006800F00C000828F8D10CBD00380240B4
:101C900000700040195A4007003C024010B515483A
:101CA000006840F47000134908601348006840F071
:101CB00001001149086000200F49083108600E48F2
:101CC00000680E4908400C4908600D48091D08606D
:101CD000081F006820F48020091F086000200649C2
:101CE0000C310860FFF74AFF4FF00060014980396E
:101CF000086010BD88ED00E000380240FFFFF6FEEE
:101D00001030002410B540F227711A4800F044F852
:101D1000012818D1184800F0E6FF40B9164800F035
:101D2000F2FF04462146134800F0F5F80BE00022CC
:101D300040F227710F4800F059F8012240F2255176
:101D40000C4800F053F840F225510A4800F024F8FE
:101D500001280DD1002240F22551064800F046F836
:101D6000044800F0D3F8C4B22146044800F0EAFF6A
:101D700010BD000000480040C2000020C401002047
:101D800021B1828942F40052828104E082894DF6B9
:101D9000FF731A408281704770B502460024002309
:101DA0000025002040F66A16B14200D100BFC1F301
:101DB000421501F01F03012606FA03F3012D02D19B
:101DC0009689334006E0022D02D1168A334001E0A5
:101DD000968A33400C12012606FA04F41688344021
:101DE00013B10CB1012000E0002070BDF0B5034636
:101DF000002400260025002040F66A17B94200D1D1
:101E000000BF1846C1F3421401F01F06012707FA6C
:101E100006F5012C01D10C3004E0022C01D1103068
:101E200000E014301AB107682F43076002E007682A
:101E3000AF430760F0BD00002DE9FF4705460E46A1
:101E40000024A14600BFA046B08900B100BF2C8A83
:101E500024F44054F08804432C82AC8941F20C6095
:101E60008443B08831890843718908430443AC81B5
:101E7000AC8A24F44074B0890443AC826846FFF70E
:101E800083FB2048854202D01F48854202D1DDF8FD
:101E90000C9001E0DDF80890A88900F4004040B102
:101EA00009EBC90000EB091031684900B0FBF1F7FC
:101EB00007E009EBC90000EB091031688900B0FBAD
:101EC000F1F76420B7FBF0F004012009642101FB65
:101ED0001078A88900F4004040B1322000EBC8001F
:101EE000B0FBF1F000F00700044308E0322000EB03
:101EF00008106421B0FBF1F000F00F0004432C81C6
:101F0000BDE8FF87001001400014014001468888A9
:101F1000C0F308007047C1F30802828070474FF495
:101F20001651016000218180C18001810C21418115
:101F3000002181817047014600222DE08B5CC81C86
:101F4000805C83420AD1C81C835C881D805C83420C
:101F500004D1C81C805C08B1885C704702EB420069
:101F6000085C02EB42030B445B78984212D102EB0F
:101F700042000844407802EB42030B449B789842AD
:101F800008D102EB42000844407818B102EB42004D
:101F9000085CE2E7501CC2B2032ACFDB087908B91B
:101FA0000020DAE70A780879824205D10A79087AAE
:101FB000824201D10878D0E78A790879824205D136
:101FC00008798A78904201D18879C6E70020C4E771
:101FD00010B5044602E0204600F095FE204600F0D1
:101FE00082FE0028F7D010BD01B581B0002000901E
:101FF0000198009002E00098401E00900098002890
:10200000F9D10CBD01B581B00020009005490198BF
:102010004843009002E00098401E0090009800287D
:10202000F9D10CBDA0860100F0B597B0044663A6B7
:10203000654A07CA14AB07C3634A0C3207CA11AB1F
:1020400007C3614A183207CA0EAB07C35E4A24327F
:10205000D2E900109268CDE90C020B915A4A303255
:10206000D2E900109268CDE909020891564A3C3243
:1020700007CA05AB07C3544A4832D2E90010926838
:10208000CDE90302029151A103C9CDE9000100206D
:1020900032E0215C012901D1582205E0215C0229AE
:1020A00001D14F2200E020224100491C11AB5A54BB
:1020B000E11C095C012901D1582206E0E11C095C00
:1020C000022901D14F2200E020224100491C0BAB24
:1020D0005A54A11D095C012901D1582206E0A11D15
:1020E000095C022901D14F2200E020224100491C55
:1020F00005AB5A54411C48B20328CADBFEF754FD15
:10210000002731463846FEF7B9FCFEF74DFDC7887B
:1021100014A93846FEF7B2FCFEF746FDC08840041D
:10212000070C11A93846FEF7A9FCFEF73DFDC08853
:1021300000EB400087B20EA93846FEF79FFCFEF781
:1021400033FDC0888004070C0BA93846FEF796FCC7
:10215000FEF72AFDC08800EB800087B208A9384648
:10216000FEF78CFCFEF720FDC08800EB4000400429
:10217000070C05A93846FEF781FCFEF715FDC0885F
:10218000C0EBC00087B202A93846FEF777FC2046B4
:10219000FFF7D1FE05467DB1012D01D1582000E0A9
:1021A0004F208DF80000FEF7FFFCC088C004070C2C
:1021B00069463846FEF762FC17B0F0BD54696320EB
:1021C00054616320546F65001C2F00085F207769FD
:1021D0006E00000000B585B001210846FFF774F9D4
:1021E00001218803FFF7B0F900208DF810008DF869
:1021F00013000120039003A91148FEF7A3FA002160
:102200000846FFF79BFC0120019000208DF8080094
:102210000C208DF8090001208DF80A0001A8FEF7B6
:102220008BF906208DF8000001208DF801008DF853
:1022300002008DF803006846FFF700F905B000BD05
:102240000000024010B50120FEF76AF950B14FF4CA
:10225000804000F089F84FF4005000F085F801202C
:10226000FEF758F910BD10B5024600200CE0002121
:1022700006E0002300EB4004144463544B1CD9B225
:102280000329F6DB411CC8B20328F0DB10BD0000B7
:1022900010B511480068FEF71DF884B222460E48BA
:1022A00001680E4800F05EFD0D480068FEF712F868
:1022B00084B222460A480168084800F053FD0648E7
:1022C0000068FEF707F884B2224603480168034815
:1022D00000F048FD10BD000058000020C2000020A2
:1022E0004C00002010B5FEF765FCFEF7B1FC0120A4
:1022F000FEF720FF0120FEF7BDFE4FF6FF71002024
:10230000FEF7A8FE4FF6FF70FEF75EFB10BD000063
:102310001CB501214020FFF7D7F84FF4C0400090D2
:1023200001208DF8040000208DF8060003208DF8B0
:10233000050000208DF8070069460248FEF702FA02
:102340001CBD000000180240024909688143014A8F
:102350001160704714180240024909680143014A9C
:102360001160704714180240024909684140014A4F
:10237000116070471418024070B5FFF7B3FFFFF704
:1023800029FFFFF7C5FFFB48FFF76DFF00F064FD75
:10239000F94800F09DFCF94800F09AFCFEE3F8488B
:1023A0000068FDF797FF84B22246F5480168F248BD
:1023B00000F0D8FCF3480068FDF78CFF84B2224699
:1023C000F0480168EC4800F0CDFC05E0012240F245
:1023D0002771ED48FFF70AFDE74800F084FC00286C
:1023E000F4D005E0012240F22771E748FFF7FEFC38
:1023F000E24800F078FC0028F4D1E04800F083FCCB
:10240000E249087008460078362803DC0846007860
:10241000312802DAFFF73CFF02E00120DC490870B6
:10242000CDE3DA480078312830D1DA480078002846
:102430002BD1D3480068FDF74DFF84B22246D04827
:102440000168CD4800F08EFCD3480068FDF742FFDC
:1024500084B22246D0480168C74800F083FCCF48C8
:102460000068FDF737FF84B22246CC480168C248B5
:1024700000F078FCCA480068FDF72CFF84B22246C1
:10248000C7480168BC4800F06DFC94E3BF48007881
:10249000322879D1BF48007858B3BE480078612807
:1024A00003DBBC480078652823DDFFF7F1FEBD485B
:1024B0000068FDF70FFF84B22246BA480168AE48B3
:1024C00000F050FCB5480068FDF704FF84B22246D6
:1024D000B2480168A84800F045FCB1480068FDF723
:1024E000F9FE84B22246AE480168A34800F03AFCE7
:1024F00061E3A848007860BBA1480068FDF7EAFEE8
:1025000084B222469E4801689B4800F02BFCA548F7
:102510000068FDF7DFFE84B22246A24801689648B3
:1025200000F020FC9D480068FDF7D4FE84B22246EE
:102530009A480168904800F015FC99480068FDF73A
:10254000C9FE84B22246964801688B4800F00AFC16
:1025500031E38B480068FDF7BDFE84B2224688480F
:102560000168854800F0FEFB8A48007861280CD19C
:102570008D480068FDF7AEFE84B222468A480168A5
:102580007D4800F0EFFB3FE086E18248007862285A
:102590000BD186480068FDF79DFE84B22246834831
:1025A0000168754800F0DEFB2EE07A480078632869
:1025B0000BD17F480068FDF78DFE84B222467C482F
:1025C00001686D4800F0CEFB1EE072480078642878
:1025D0000BD178480068FDF77DFE84B2224675482D
:1025E0000168654800F0BEFB0EE06A480078652887
:1025F0000AD171480068FDF76DFE84B222466E482C
:1026000001685D4800F0AEFB6C480068FDF762FEB3
:1026100084B2224669480168574800F0A3FB684825
:1026200000F0B4FB5D480068FDF754FE84B222461A
:102630005A480168504800F095FB62480068FDF771
:1026400049FE84B222465F4801684B4800F08AFB8D
:102650005D4800F09BFB4F48007861280AD158483C
:10266000D0E90020584B0ACB51185841574AC2E9CB
:10267000001043E04748007862280BD15048D0E969
:102680000030514A06CA591A60EB02004F4AC2E9AB
:10269000001033E03F48007863280ED1484806C850
:1026A0004948D0E90030A1FB034502FB035201FB7E
:1026B00000204649C1E9004020E0364800786428FF
:1026C00010D14148D0E9001000235940584001433F
:1026D00008D03D483A490CC803C9FDF7D7FD3B4A2D
:1026E00003C20BE02B480078652807D136483449EF
:1026F0000CC803C9FDF7CAFD34480CC02748006860
:10270000FDF7E8FD84B22246244801681A4800F02B
:1027100029FB2F480068FDF7DDFD84B222462C48D6
:102720000168154800F01EFB1A480078642813D190
:102730002548D0E9001000235940584001430BD1EF
:1027400024480068FDF7C6FD84B22246214801688E
:10275000094800F007FB58E01C48D0E900100022AF
:1027600051405040014337D13021034800F0EAFA8C
:102770004BE00000B8000020C2000020C40100208F
:102780005800002010000020004800406B0000208E
:10279000690000206C0000201C00002020000020A8
:1027A0002400002014000020340000203800002005
:1027B0003C00002040000020440000202C000020AD
:1027C00070000020300000207800002080000020F1
:1027D0004800002054000020F948D0E900100022F1
:1027E000891A90410DDA2D21F64800F0ABFAF44831
:1027F000D0E900200021524261EB0000F049C1E91C
:102800000020EF4903C900F03DFAEF480068FDF7EA
:1028100061FD84B22246EC480168EA4800F0A2FA61
:10282000EA48FFF7D5FB05E0012240F22771E848AE
:10283000FFF7DCFAE54800F056FA0028F4D1E54845
:102840000068FDF747FD84B22246E2480168DD4892
:1028500000F088FAE0480068FDF73CFD84B22246AB
:10286000DD480168D74800F07DFADC480068FDF7D4
:1028700031FD84B22246D9480168D24800F072FA8C
:10288000D7480068FDF726FD84B22246D448016887
:10289000CC4800F067FA8EE1D2480078332870D136
:1028A000D148007858B3D0480078612803DBCE487F
:1028B0000078642823DDFFF7EBFCCC480068FDF7C7
:1028C00009FD84B22246C9480168BE4800F04AFAB0
:1028D000C2480068FDF7FEFC84B22246BF4801688A
:1028E000B84800F03FFABE480068FDF7F3FC84B238
:1028F0002246BB480168B34800F034FA5BE1BA48AD
:10290000007860BBB3480068FDF7E4FC84B222465F
:10291000B0480168AB4800F025FAB4480068FDF7FC
:10292000D9FC84B22246B1480168A64800F01AFAE0
:10293000AA480068FDF7CEFC84B22246A748016889
:10294000A04800F00FFAA6480068FDF7C3FC84B267
:102950002246A34801689B4800F004FA2BE1A248F4
:102960000078612804D14FF40050FFF7F5FC22E114
:102970009D480078622805D14FF40050FFF7E4FC31
:1029800019E111E098480078632804D14FF48040A1
:10299000FFF7E2FC0FE1944800786428AED14FF4D1
:1029A0008040FFF7D1FC06E18E480078342834D10E
:1029B00088480068FDF78EFC84B22246854801688D
:1029C000804800F0CFF98A480068FDF783FC84B2A4
:1029D0002246874801687B4800F0C4F97F480068B8
:1029E000FDF778FC84B222467C480168754800F007
:1029F000B9F97B480068FDF76DFC84B2224678483F
:102A00000168704800F0AEF94FF40050FFF7A4FCE5
:102A10004FF48040FFF798FCCDE0724800783528ED
:102A20009CD17148007840B901207249087000209B
:102A3000714908707148FFF716FC66480068FDF799
:102A400049FC84B22246634801685E4800F08AF976
:102A50006B480068FDF73EFC84B222466848016876
:102A6000584800F07FF95D480068FDF733FC84B2F8
:102A700022465A480168534800F074F961480068DA
:102A8000FDF728FC84B222465E4801684D4800F0FC
:102A900069F958480078012801D1582000E04F20FA
:102AA0000146484800F04EF94C480068FDF712FC1A
:102AB00084B2224649480168424800F053F9484828
:102AC0000068FDF707FC84B22246454801683D488E
:102AD00000F048F944480078302840DD424800784A
:102AE00039283CDC4448007880BB3F4800783038C7
:102AF000C0B2401E032190FBF1F0434908703A48F0
:102B000000783038C0B2401E032190FBF1F201FB87
:102B100012003E4908703C48007800EB40003749FD
:102B200008443A490978405C80B93248007836490F
:102B3000097801EB4101314A1144344A1278885432
:102B40002C480078012802D1022001E007E0012092
:102B5000284908702948FFF7EEF9274908702648E8
:102B6000007808B31D480068FDF7B4FB84B2224624
:102B70001A480168134800F0F5F825480068FDF789
:102B8000A9FB84B22246224801680E4800F0EAF808
:102B900019480078012802D1582001E061E04F2057
:102BA0000146084800F0CEF84FF6FF70FDF70CFF25
:102BB0001248FFF739FA0548FFF70AFA30E04BE010
:102BC00080000020C200002050000020C40100202E
:102BD0000048004058000020140000202000002081
:102BE000240000206B0000206C0000201800002052
:102BF00028000020680000206F000020B80000209E
:102C00005C000020600000206D0000206E000020AD
:102C100064000020012240F227711548FFF7E6F812
:102C2000144800F060F80028F4D1124800F05BF876
:102C300090B9104800F067F80F490870084600780E
:102C40001B2805D100200D4908700D49087003E0CC
:102C5000094800780A4908700848007801283FF4BC
:102C6000E0AB06480078FF287FF499AB002070BDE8
:102C700000480040C40100206A00002069000020D4
:102C80006C0000202DE9F04104460D46002184EA45
:102C900001006940084301D1BDE8F0810A22002308
:102CA00020462946FDF7F2FA0646FFF7EBFF0A2217
:102CB000002320462946FDF7E9FA30201018C6B255
:102CC0003146024800F03EF800BFE5E7C2000020B0
:102CD00010B504460020A4F800014FF4807120468E
:102CE000FDF717FB10BD01460020B1F8002102B925
:102CF0000120704701460020B1F80021B2F5807F25
:102D000000D10120704730B5034600250024184645
:102D1000FFF7E9FFA0B91D78B3F80001401EA3F842
:102D2000000100BF04E0601C185C1855601C84B2F0
:102D3000B3F80001A042F6DC0020B3F800115854AB
:102D4000284630BD10B503460C461846FFF7D2FFA3
:102D500038B9B3F800011C54B3F80001401CA3F8C3
:102D6000000110BDF0B507460D461646002405E0EB
:102D7000295D3846FFF7E6FF601C84B2B44204DAEE
:102D80003846FFF7B7FF0028F2D0F0BD2DE9F0413B
:102D90000446002121606160002500202A49087056
:102DA00041E0012240F227712848FFF71FF8284828
:102DB000FFF799FF28BB2648FFF7A5FF22490870B7
:102DC0000846007830281DDB08460078392819DCD1
:102DD0000A260020D4E90021A2FB063701FB067178
:102DE00002FB001618480078A0F13001CA175918E4
:102DF00046EB0200C4E90010134801781548FFF7BC
:102E0000A1FF10E00022D4E90010514050400143DE
:102E100009D10D4800782D2805D101250A480178EF
:102E20000C48FFF78FFF084800780A28B9D13DB158
:102E30000022D4E90010494262EB0000C4E900100E
:102E400003CCBDE8F08100006A000020004800408B
:102E5000C4010020C200002000B587B005A8FDF71E
:102E6000E0FC01A8FFF75BF801218804FEF74CFBAA
:102E700001210220FEF728FB07220A212248FDF744
:102E8000A9FC07220B212048FDF7A4FC02208DF8A5
:102E9000180000208DF81A004FF4406005900120C2
:102EA0008DF81B0003208DF8190005A91648FDF7C1
:102EB00049FC4FF4165001900020ADF810000C2092
:102EC000ADF80E000020ADF80C00ADF80A00ADF82A
:102ED000080001A90D48FEF7AFFF4FF44070FEF760
:102EE000E9FA27208DF8000001208DF8030000206A
:102EF0008DF801006846FEF7A1FA01210348FEF7AC
:102F00003FFF07B000BD0000000402400048004041
:102F10004FF04070E1EE100A704700002D2D2D2D6E
:102F20002D2D2D00000000007C207C207C207C00CA
:102F3000000000002D2D2D2D2D2D2D000000000056
:102F40007C207C207C207C00000000002D2D2D2D7D
:102F50002D2D2D00000000007C207C207C207C009A
:102F6000000000002D2D2D2D2D2D2D000000000026
:102F70000000000000000000000000000000000051
:102F80000000000000000000000000000000000041
:102F90000000000000000000000000000000000031
:102FA0008001800180018001800180018001800119
:102FB000800180018001800180010000000080010B
:102FC0008001000000000000000000000000000080
:102FD0000000CC00CC00CC00CC00CC00CC00000029
:102FE00000000000000000000000000000000000E1
:102FF00000000000000000000000000000000000D1
:1030000000000000000000000000600C600C600C7C
:1030100030063006FE1FFE1F300638071803FE1F5D
:10302000FE1F180318038C018C018C0100000000A6
:103030008000E003F80F9C0E8C1C8C188C0098000C
:10304000F801E007800E801C8C188C189C18B80CB6
:10305000F00FE0038000800000000000000000008E
:10306000000000000E181B0C110C110611061103B4
:1030700011039B018E01C038C06C60446044304431
:1030800030441844186C0C380000000000000000A8
:10309000E001F0033807180618063003F001F000CD
:1030A000F8009C310E33061E061C061C063FFC73FE
:1030B000F0210000000000000000000000000000FF
:1030C00000000C000C000C000C000C000C000000B8
:1030D00000000000000000000000000000000000F0
:1030E00000000000000000000000000000000000E0
:1030F000000200038001C000C000600060003000DA
:10310000300030003000300030003000300060000F
:103110006000C000C0008001000300020000000049
:1031200020006000C0008001800100030003000651
:103130000006000600060006000600060006000362
:10314000000380018001C00060002000000000003A
:1031500000000000000000000000C000C000D80611
:10316000F807E0013003380700000000000000000D
:10317000000000000000000000000000000000004F
:1031800000000000000000000000800180018001BC
:1031900080018001FC3FFC3F8001800180018001B3
:1031A000800100000000000000000000000000009E
:1031B000000000000000000000000000000000000F
:1031C00000000000000000000000000000000000FF
:1031D000800180010001000180000000000000006B
:1031E00000000000000000000000000000000000DF
:1031F000000000000000E007E00700000000000001
:1032000000000000000000000000000000000000BE
:1032100000000000000000000000000000000000AE
:10322000000000000000000000000000000000009E
:10323000C000C0000000000000000000000000000E
:10324000000C000C0006000600060003000300034B
:103250008003800180018001C000C000C0006000C8
:1032600060000000000000000000000000000000FE
:10327000E003F007380E180C0C180C180C180C187A
:103280000C180C180C180C180C18180C380EF00729
:10329000E00300000000000000000000000000004B
:1032A00000018001C001F0019801880180018001C6
:1032B0008001800180018001800180018001800106
:1032C000800100000000000000000000000000007D
:1032D000E003F80F180C0C180C1800180018000C5C
:1032E000000600038001C000600030001800FC1FD1
:1032F000FC1F0000000000000000000000000000B3
:10330000E001F807180E0C0C0C0C000C0006C003B2
:10331000C007000C001800180C180C18180CF8073F
:10332000E0030000000000000000000000000000BA
:10333000000C000E000F000F800DC00C600C600C24
:10334000300C180C0C0CFC3FFC3F000C000C000C6B
:10335000000C000000000000000000000000000061
:10336000F80FF80F180018000C00EC03FC071C0EF7
:10337000001C0018001800180C181C0C180EF80778
:10338000E00300000000000000000000000000005A
:10339000C007F00F381C181818000C00CC03EC0FF5
:1033A0003C0E1C1C0C180C180C18181C380EF007BE
:1033B000E00300000000000000000000000000002A
:1033C000FC1FFC1F000C00060006000380038001A8
:1033D000C001C000E00060006000700030003000FC
:1033E00030000000000000000000000000000000AD
:1033F000E003F007380E180C180C180C3806F0070C
:10340000F007180C0C180C180C180C18380CF80FC6
:10341000E0030000000000000000000000000000C9
:10342000E003F007380E1C0C0C180C180C181C1CB0
:10343000381EF81BE0190018000C000C1C0EF807D1
:10344000F00100000000000000000000000000008B
:10345000000000000000000000008001800100006A
:1034600000000000000000000000000000008001DB
:1034700080010000000000000000000000000000CB
:10348000000000000000000000008001800100003A
:1034900000000000000000000000000000008001AB
:1034A0008001000100018000000000000000000019
:1034B00000000000000000000000000000000010FC
:1034C000001C800FE003F8001800F800E003800FF4
:1034D000001C0010000000000000000000000000C0
:1034E0000000000000000000000000000000F81FC5
:1034F000000000000000F81F0000000000000000B5
:1035000000000000000000000000000000000000BB
:1035100000000000000000000000000000000800A3
:103520003800F001C007001F0018001FC007F0019D
:10353000380008000000000000000000000000004B
:10354000E003F80F180C0C180C180018000C0006FB
:1035500000038001C000C000C00000000000C000E7
:10356000C00000000000000000000000000000009B
:103570000000E00718180420C229224A1144094417
:103580000944094409221113E20C024004201818CE
:10359000E007000000000000000000000000000044
:1035A00080038003C006C006C006600C600C3018A3
:1035B00030183018F83FF83F1C700C600C6006C0E3
:1035C00006C0000000000000000000000000000035
:1035D000FC03FC0F0C0C0C180C180C180C0CFC0742
:1035E000FC0F0C180C300C300C300C300C18FC1F7D
:1035F000FC070000000000000000000000000000C8
:10360000C007F01F38381C300C700660060006003A
:10361000060006000600060006600C701C30F01F55
:10362000E0070000000000000000000000000000B3
:10363000FE03FE0F060E061806180630063006308A
:10364000063006300630063006180618060EFE0F45
:10365000FE03000000000000000000000000000069
:10366000FC3FFC3F0C000C000C000C000C00FC1F8D
:10367000FC1F0C000C000C000C000C000C00FC3FAC
:10368000FC3F0000000000000000000000000000FF
:10369000F83FF83F18001800180018001800F81F2D
:1036A000F81F18001800180018001800180018005B
:1036B00018000000000000000000000000000000F2
:1036C000E00FF83F3C780E6006E007C003000300FF
:1036D00003FE03FE03C007C006C00EC03CF0F83F67
:1036E000E00F0000000000000000000000000000EB
:1036F0000C300C300C300C300C300C300C30FC3FEB
:10370000FC3F0C300C300C300C300C300C300C30DA
:103710000C3000000000000000000000000000006D
:103720008001800180018001800180018001800191
:103730008001800180018001800180018001800181
:1037400080010000000000000000000000000000F8
:103750000006000600060006000600060006000639
:103760000006000600060006180618063807F003D3
:10377000E001000000000000000000000000000068
:1037800006300618060C060606038601C60066000B
:103790007600DE008E0106030606060C06180630CB
:1037A00006600000000000000000000000000000B3
:1037B0001800180018001800180018001800180049
:1037C0001800180018001800180018001800F81F3A
:1037D000F81F0000000000000000000000000000D2
:1037E0000EE01EF01EF01EF036D836D836D836D889
:1037F00066CC66CC66CCC6C6C6C6C6C6C6C686C3BA
:1038000086C300000000000000000000000000006F
:103810000C301C303C303C306C306C30CC30CC3018
:103820008C310C330C330C360C360C3C0C3C0C3805
:103830000C3000000000000000000000000000004C
:10384000E007F81F1C380E70066003C003C003C0F9
:1038500003C003C003C003C006600E701C38F81F0D
:10386000E007000000000000000000000000000071
:10387000FC0FFC1F0C380C300C300C300C300C18CA
:10388000FC1FFC070C000C000C000C000C000C00D2
:103890000C0000000000000000000000000000001C
:1038A000E007F81F1C380E70066003E003C003C079
:1038B00003C003C003C007E006630E3F1C3CF83F93
:1038C000E0F700C000000000000000000000000061
:1038D000FE0FFE1F06380630063006300638FE1F83
:1038E000FE0706030606060C061806180630063004
:1038F0000660000000000000000000000000000062
:10390000E003F80F1C0C0C180C180C001C00F8033A
:10391000E00F001E0038063006300E301C1CF80F79
:10392000E0070000000000000000000000000000B0
:10393000FE7FFE7F80018001800180018001800187
:10394000800180018001800180018001800180016F
:1039500080010000000000000000000000000000E6
:103960000C300C300C300C300C300C300C300C3077
:103970000C300C300C300C300C300C301818F81F98
:10398000E007000000000000000000000000000050
:1039900003600630063006300C180C180C18180C92
:1039A000180C380E30063006700760036003C00143
:1039B000C001000000000000000000000000000046
:1039C0000360C361C361C3616633663366336633C4
:1039D000663366336C1B6C1B6C1B2C1A3C1E380E3A
:1039E000380E000000000000000000000000000091
:1039F0000FE00C7018303018700C600EC007800398
:103A00008003C003E006700C301C18180C300E60E8
:103A100007E00000000000000000000000000000BF
:103A200003C006600C301C383818300C6006E00704
:103A3000C00380018001800180018001800180013C
:103A400080010000000000000000000000000000F5
:103A5000FC7FFC7F006000300018000C00060003B3
:103A60008001C0006000300018000C000600FE7FDE
:103A7000FE7F0000000000000000000000000000C9
:103A8000E003E00360006000600060006000600030
:103A90006000600060006000600060006000600026
:103AA0006000600060006000E003E00300000000D0
:103AB00030003000600060006000C000C000C00046
:103AC000C0018001800180010003000300030006A3
:103AD00000060000000000000000000000000000E0
:103AE000E003E003000300030003000300030003FE
:103AF00000030003000300030003000300030003AE
:103B00000003000300030003E003E00300000000E3
:103B10000000C001C001600360036003300630068E
:103B2000180C180C0000000000000000000000004D
:103B30000000000000000000000000000000000085
:103B40000000000000000000000000000000000075
:103B50000000000000000000000000000000000065
:103B6000FFFFFFFF00000000000000000000000059
:103B70000C000C000C000C000C000C0000000000FD
:103B80000000000000000000000000000000000035
:103B90000000000000000000000000000000000025
:103BA00000000000000000000000F003F8071C0CFB
:103BB0000C0C000FF00FF80C0C0C0C0C1C0FF80F79
:103BC000F0180000000000000000000000000000ED
:103BD00018001800180018001800D803F80F380C47
:103BE000181818181818181818181818380CF80F6A
:103BF000D8030000000000000000000000000000EA
:103C000000000000000000000000C003F007300EBC
:103C1000180C1800180018001800180C300EF007C7
:103C2000C0030000000000000000000000000000D1
:103C300000180018001800180018C01BF01F301CD6
:103C4000181818181818181818181818301CF01FF9
:103C5000C01B000000000000000000000000000089
:103C600000000000000000000000C003F00F300C56
:103C70001818F81FF81F180018003818301CF00F1B
:103C8000C00700000000000000000000000000006D
:103C9000800FC00FC000C000C000F007F007C000D8
:103CA000C000C000C000C000C000C000C000C00014
:103CB000C000000000000000000000000000000044
:103CC00000000000000000000000E00DF80F180EDA
:103CD0000C0C0C0C0C0C0C0C0C0C0C0C180EF80F27
:103CE000E00D000C0C0C1C06F807F00100000000B1
:103CF00018001800180018001800D807F80F381C12
:103D00001818181818181818181818181818181833
:103D10001818000000000000000000000000000073
:103D2000C000C000000000000000C000C000C000D3
:103D3000C000C000C000C000C000C000C000C00083
:103D4000C0000000000000000000000000000000B3
:103D5000C000C000000000000000C000C000C000A3
:103D6000C000C000C000C000C000C000C000C00053
:103D7000C000C000C000C000F800780000000000D3
:103D80000C000C000C000C000C000C0C0C060C03BE
:103D90008C01CC006C00FC009C018C030C030C0615
:103DA0000C0C0000000000000000000000000000FB
:103DB000C000C000C000C000C000C000C000C00003
:103DC000C000C000C000C000C000C000C000C000F3
:103DD000C000000000000000000000000000000023
:103DE000000000000000000000007C3CFF7EC7E3F4
:103DF00083C183C183C183C183C183C183C183C1A3
:103E000083C100000000000000000000000000006E
:103E1000000000000000000000009807F80F381CA8
:103E20001818181818181818181818181818181812
:103E30001818000000000000000000000000000052
:103E400000000000000000000000C003F00F300C74
:103E5000181818181818181818181818300CF00F07
:103E6000C00300000000000000000000000000008F
:103E700000000000000000000000D803F80F380C1C
:103E8000181818181818181818181818380CF80FC7
:103E9000D8031800180018001800180000000000CF
:103EA00000000000000000000000C01BF01F301CDC
:103EB000181818181818181818181818301CF01F87
:103EC000C01B00180018001800180018000000009F
:103ED00000000000000000000000B007F0037000C8
:103EE0003000300030003000300030003000300052
:103EF0003000000000000000000000000000000092
:103F000000000000000000000000E003F003380E95
:103F1000180C3800F003C007000C180C380EF0071E
:103F2000E0030000000000000000000000000000AE
:103F300000008000C000C000C000F007F007C00013
:103F4000C000C000C000C000C000C000C000C0076A
:103F500080070000000000000000000000000000DA
:103F600000000000000000000000181818181818C1
:103F7000181818181818181818181818381CF01FBE
:103F8000E019000000000000000000000000000038
:103F9000000000000000000000000C18180C180CB5
:103FA000180C300630063006600360036003C00161
:103FB000C001000000000000000000000000000040
:103FC00000000000000000000000C141C141C361C9
:103FD0006363636363633636363636361C1C1C1CDB
:103FE0001C1C000000000000000000000000000099
:103FF000000000000000000000001C38381C300CDD
:10400000600660036003600360036006300C381CC8
:104010001C3800000000000000000000000000004C
:1040200000000000000000000000183030183018B8
:104030007018600C600CE00CC006C00680038003A2
:10404000800380018001C001F000700000000000CA
:1040500000000000000000000000FC1FFC1F000C1E
:10406000000600038001C000600030001800FC1F43
:10407000FC1F000000000000000000000000000025
:1040800000038001C000C000C000C000C000C0002C
:1040900060006000300060004000C000C000C00050
:1040A000C000C000C000800100030000000000004C
:1040B00080018001800180018001800180018001F8
:1040C00080018001800180018001800180018001E8
:1040D00080018001800180018001800100000000DA
:1040E0006000C000C001800180018001800180016A
:1040F000000300030006000300018001800180012D
:10410000800180018001C00060000000000000000C
:104110000000000000000000000000000000F0109F
:10412000F81F080F00000000000000000000000061
:10413000000000000000000000000000000000007F
:10414000000000000000000000000000000000006F
:1041500000000000000000000020002000200020DF
:1041600000200020002000000020000000000000CF
:10417000005000500050000000000000000000004F
:104180000000000000000000000900090012007F8C
:104190000012007F00120024002400000000001024
:1041A00000380054005000500038001400540054EF
:1041B0000038001000000000803000490049004A2B
:1041C000C032200520092009C010000000000000B6
:1041D000000C001200120014001800250023002318
:1041E000801D000000000000004000400040000072
:1041F00000000000000000000000000000000000BF
:1042000000080010001000200020002000200020E6
:1042100000200010001000000040002000200010CE
:1042200000100010001000100010002000200000FE
:10423000002000700020005000000000000000007E
:10424000000000000000000000000000000800085E
:10425000007F0008000800000000000000000000CF
:10426000000000000000000000000000000000004E
:1042700000200020004000000000000000000000BE
:1042800000000070000000000000000000000000BE
:10429000000000000000000000000000000000001E
:1042A000002000000000000000100010001000209E
:1042B000002000200020004000400000000000001E
:1042C000001000280044004400440044004400283A
:1042D000001000000000000000100030005000102E
:1042E000001000100010001000100000000000007E
:1042F0000030004800440004000800100020004086
:10430000007C0000000000000030004800040008AD
:1043100000100008004400480030000000000000C9
:10432000000800180018002800280048007C000839
:104330000008000000000000003C00200040007069
:104340000048000400440048003000000000000065
:104350000018002400400050006800440044002879
:104360000010000000000000007C000400080010A5
:1043700000100010002000200020000000000000BD
:1043800000100028004400280010002800440028E5
:10439000001000000000000000100028004400444D
:1043A000002C001400040048003000000000000051
:1043B00000000000002000000000000000000000DD
:1043C00000200000000000000000000000200000AD
:1043D000000000000000000000200020004000005D
:1043E0000000000400080030004000300008000415
:1043F000000000000000000000000000007C000041
:104400000000007C00000000000000000000000030
:1044100000000040002000180004001800200040A8
:1044200000000000000000000038006400440004A8
:104430000008001000100000001000000000000044
:10444000800F4010A02EA051205120512051205308
:10445000C04D20204010000000080014001400147B
:104460000022003E00220041004100000000000048
:10447000003C002200220022003C002200220022F8
:10448000003C000000000000000E00110021002090
:104490000020002000210011000E0000000000009C
:1044A000003C0022002100210021002100210022E7
:1044B000003C000000000000003E00200020002022
:1044C000003E002000200020003E00000000000010
:1044D000003E002000200020003C002000200020A2
:1044E0000020000000000000000E0011002100204C
:1044F0000027002100210011000E00000000000034
:104500000021002100210021003F00210021002185
:1045100000210000000000000020002000200020FA
:1045200000200020002000200020000000000000EB
:1045300000080008000800080008000800480048BB
:1045400000300000000000000022002400280028A5
:104550000038002800240024002200000000000091
:10456000002000200020002000200020002000204B
:10457000003E00000000000080208031803180314A
:10458000802A802A802A802A8024000000000000DF
:1045900000210031003100290029002500230023DB
:1045A0000021000000000000000C0012002100218A
:1045B0000021002100210012000C0000000000007A
:1045C000003C002200220022003C002000200020AD
:1045D0000020000000000000000C0012002100215B
:1045E0000021002100210016000D00010000000044
:1045F000003E002100210021003E00240022002175
:104600008020000000000000001C0022002200208A
:10461000001C000200220022001C0000000000001C
:10462000003E000800080008000800080008000814
:1046300000080000000000000021002100210021EE
:104640000021002100210012000C000000000000E9
:104650000041004100220022002200140014001436
:1046600000080000000000004044404A402A802A20
:10467000802A802A802A802A001100000000000081
:10468000004100220014001400080014001400224D
:104690000041000000000000004100220022001440
:1046A00000080008000800080008000000000000E2
:1046B000007E0002000400080010001000200040EE
:1046C000007E0000000000000030002000200020DC
:1046D00000200020002000200020002000200000FA
:1046E000004000400020002000200020002000109A
:1046F00000100000000000000060002000200020EA
:1047000000200020002000200020002000200000C9
:1047100000100028002800280044000000000000CD
:104720000000000000000000000000000000000089
:10473000000000000000000000000000007E0040BB
:104740000020000000000000000000000000000049
:1047500000000000000000000000000000380044DD
:104760000004003C00440044003C00000000000045
:1047700000400040005800640044004400440064CD
:104780000058000000000000000000000030004859
:1047900000400040004000480030000000000000E1
:1047A000000400040034004C004400440044004C69
:1047B0000034000000000000000000000038004449
:1047C0000044007C0040004400380000000000006D
:1047D0000060004000E00040004000400040004019
:1047E0000040000000000000000000000034004C09
:1047F000004400440044004C003400040044000025
:10480000004000400058006400440044004400445C
:104810000044000000000000004000000040004094
:104820000040004000400040004000000000000048
:1048300000400000004000400040004000400040B8
:104840000040004000400000004000400048005090
:1048500000600050005000480048000000000000C8
:104860000040004000400040004000400040004048
:104870000040000000000000000000000052006D39
:1048800000490049004900490049000000000000BB
:10489000000000000058006400440044004400444C
:1048A0000044000000000000000000000038004448
:1048B00000440044004400440038000000000000B0
:1048C00000000000005800640044004400440064FC
:1048D0000058004000400000000000000034004C80
:1048E000004400440044004C003400040004000074
:1048F0000000000000500060004000400040004008
:1049000000400000000000000000000000300048EF
:1049100000400030000800480030000000000000A7
:104920000040004000E000400040004000400040E7
:10493000006000000000000000000000004400448F
:10494000004400440044004C00340000000000001B
:10495000000000000044004400280028002800282F
:1049600000100000000000000000000000490049A5
:1049700000550055005500550022000000000000C1
:104980000000000000440028002800100028002833
:10499000004400000000000000000000004400444B
:1049A000002800280028001000100010001000004F
:1049B00000000000007800080010002000200040E7
:1049C00000780000000000000010002000200020FF
:1049D00000200040002000200020002000200000D7
:1049E00000200020002000200020002000200020C7
:1049F00000200020002000000040002000200020B7
:104A000000200010002000200020002000200000D6
:104A100000000000000000740058000000000000CA
:104A20000000000000000000000000700050005076
:104A300000500050005000500070000000000000C6
:104A40000000000000000000000000000000000066
:104A50000000000000000000000000001000100036
:104A600010001000100010000000100000000000F6
:104A700000000000280028002800000000000000BE
:104A800000000000000000000000000014001400FE
:104A90003E00140028007C002800280000000000D0
:104AA00000001000380054005000380014001400BA
:104AB0005400380010000000000000004400A8006E
:104AC000A800500014001A002A0024000000000072
:104AD000000000002000500050002000E800980076
:104AE00098006000000000000000000080008000CE
:104AF0008000000000000000000000000000000036
:104B000000000000400080008000800080008000E5
:104B10008000800080000000000000008000400055
:104B200040004000400040004000400040000000C5
:104B3000000000004000E0004000A0000000000075
:104B40000000000000000000000000000000000065
:104B500020002000F80020002000000000000000DD
:104B60000000000000000000000000000000000045
:104B700000004000400000000000000000000000B5
:104B8000000000000000C000000000000000000065
:104B90000000000000000000000000000000000015
:104BA0000000400000000000000000002000200085
:104BB00020004000400080008000800000000000D5
:104BC00000000000600090009000900090009000B5
:104BD0009000600000000000000000002000600065
:104BE000A000200020002000200020000000000085
:104BF0000000000060009000100010002000400045
:104C00008000F00000000000000000006000900044
:104C10001000600010001000900060000000000014
:104C20000000000010003000500050009000F8001C
:104C300010001000000000000000000070004000A4
:104C40008000E000100010009000600000000000F4
:104C500000000000600090008000A000D0009000E4
:104C6000900060000000000000000000F000100054
:104C70002000200020004000400040000000000014
:104C80000000000060009000900060009000900024
:104C90009000600000000000000000006000900034
:104CA0009000B00050001000900060000000000074
:104CB00000000000000000004000000000000000B4
:104CC00000004000000000000000000000000000A4
:104CD0004000000000000000000040004000000014
:104CE0000000000000000000100060008000600074
:104CF00010000000000000000000000000000000A4
:104D00000000F0000000F0000000000000000000C3
:104D10000000000000000000800060001000600043
:104D20008000000000000000000000006000900013
:104D30001000200040004000000040000000000083
:104D4000000000001C0022005B00A500A500A500DB
:104D5000A5009E004100000000000000200050005F
:104D600050005000500070008800880000000000D3
:104D700000000000F00088008800F0008800880033
:104D80008800F0000000000000000000380044002F
:104D9000840080008000840044003800000000008F
:104DA00000000000E0009000880088008800880073
:104DB0009000E0000000000000000000F80080000B
:104DC0008000F800800080008000F80000000000F3
:104DD00000000000780040004000700040004000EB
:104DE00040004000000000000000000038004400C7
:104DF000840080009C008400440038000000000013
:104E000000000000880088008800F8008800880002
:104E10008800880000000000000000008000800082
:104E20008000800080008000800080000000000082
:104E30000000000010001000100010001000900092
:104E4000900060000000000000000000880090005A
:104E5000A000E000A000900090008800000000008A
:104E60000000000080008000800080008000800042
:104E70008000F00000000000000000008200C6007A
:104E8000C600AA00AA00AA00AA0092000000000022
:104E9000000000008400C400A400A400940094005A
:104EA0008C0084000000000000000000300048007A
:104EB000840084008400840048003000000000006A
:104EC00000000000F000880088008800F0008000EA
:104ED000800080000000000000000000300048005A
:104EE0008400840084008400580034000400000022
:104EF00000000000780044004400780050004800A2
:104F00004400420000000000000000007000880023
:104F10008000700008008800880070000000000019
:104F200000000000F80020002000200020002000E9
:104F30002000200000000000000000008400840029
:104F400084008400840084004800300000000000D9
:104F50000000000088008800500050005000500001
:104F60005000200000000000000000009200AA0095
:104F7000AA00AA00AA00AA00AA004400000000009B
:104F80000000000084004800480030003000480065
:104F9000480084000000000000000000880050006D
:104FA0005000200020002000200020000000000011
:104FB00000000000F8000800100020002000400061
:104FC0008000F8000000000000000000C000800029
:104FD0008000800080008000800080008000000051
:104FE00000000000800080004000400040004000C1
:104FF000200020000000000000000000C000400071
:1050000040004000400040004000400040000000E0
:10501000000000004000A000A000A0000000000070
:105020000000000000000000000000000000000080
:10503000000000000000000000000000F800000078
:1050400000000000800040000000000000000000A0
:105050000000000000000000000000000000000050
:10506000E000100070009000900070000000000050
:105070000000000080008000A000D00090009000A0
:10508000D000A000000000000000000000000000B0
:105090006000900080008000900060000000000030
:1050A00000000000100010005000B00090009000C0
:1050B000B0005000000000000000000000000000F0
:1050C00060009000F0008000900060000000000090
:1050D00000000000C0008000C00080008000800050
:1050E00080008000000000000000000000000000C0
:1050F0005000B00090009000B00050001000000080
:105100000000000080008000A000D000900090000F
:1051100090009000000000000000000080000000EF
:10512000800080008000800080008000000000007F
:1051300000000000800000008000800080008000EF
:1051400080008000800000000000000080008000DF
:105150009000A000C000A00090009000000000009F
:10516000000000008000800080008000800080003F
:10517000800080000000000000000000000000002F
:10518000A600DA0092009200920092000000000057
:105190000000000000000000A000D000900090007F
:1051A00090009000000000000000000000000000DF
:1051B00060009000900090009000600000000000EF
:1051C0000000000000000000A000D000900090004F
:1051D000D000A000800000000000000000000000DF
:1051E0005000B00090009000B0005000100000008F
:1051F0000000000000000000A000C000800080004F
:10520000800080000000000000000000000000009E
:10521000E0009000400020009000600000000000CE
:105220000000000080008000C0008000800080003E
:105230008000C0000000000000000000000000002E
:105240009000900090009000B0005000000000001E
:10525000000000000000000088008800500050009E
:1052600050002000000000000000000000000000CE
:105270009200AA00AA00AA00AA00440000000000B0
:105280000000000000000000880050002000200006
:105290005000880000000000000000000000000036
:1052A0008800500050005000200020002000000026
:1052B0000000000000000000F0001000200040008E
:1052C0008000F0000000000000000000C00080002E
:1052D00080008000000080008000800080000000CE
:1052E00000000000800080008000800080008000BE
:1052F000800080008000000000000000C00040002E
:1053000040004000200040004000400040000000FD
:1053100000000000000000000000E800B0000000F5
:105320000000000000000000000000000000E0009D
:10533000A000A000A000A000A000E000000000006D
:10534000000000000000000000000000000040001D
:105350004000400040004000400000004000A0002D
:10536000A000A000000000000000000000000000FD
:1053700024002400FE004800FC00480048003800DB
:105380005400500038001400140054003800440049
:10539000A800A800500014001A002A0024001000E1
:1053A00028002800100074004C004C003000100051
:1053B00010001000000000000000000000000800C5
:1053C0001000100010001000100010000800100065
:1053D000080008000800080008000800100000008D
:1053E0000000240018003C00180024000000000009
:1053F0000000100010007C001000100000000000F1
:10540000000000000000000008000800100000007C
:105410000000000000003C00000000000000000050
:105420000000000000000000000018001800080044
:1054300008000800100010002000200020001800C4
:105440002400240024002400240024001800080064
:1054500018002800080008000800080008003800AC
:105460004400000004000800100020007C00180028
:1054700024000400180004000400240018000400A4
:105480000C001400240044007E00040004003C00D2
:105490002000200038000400040024001800180038
:1054A00024002000380024002400240018003C00C0
:1054B0000400080008000800100010001000180088
:1054C00024002400180024002400240018001800E0
:1054D0002400240024001C00040024001800000004
:1054E000000010000000000010000000000000009C
:1054F000000008000000000008001000000000008C
:105500000000040018002000180004000000000043
:10551000000000003C0000003C0000000000000013
:1055200000002000180004001800200000001800EF
:1055300024000400080010001000000010003C00CF
:1055400042009900A500A5009D00420038003800E7
:105550004400440044007C004400440044007800BF
:1055600044004400780044004400440078001C00DB
:105570002200420040004000420022001C00700057
:1055800048004400440044004400480070007C008F
:10559000400040007C004000400040007C003C0097
:1055A00020002000380020002000200020001C00E7
:1055B0002200420040004E00420022001C00440035
:1055C000440044007C0044004400440044001000B7
:1055D0001000100010001000100010001000040057
:1055E0000400040004000400240024001800440007
:1055F000480050007000500048004800440020005F
:105600002000200020002000200020003C0082001C
:10561000C600C600AA00AA00AA00AA009200420082
:105620006200520052004A004A0046004200180040
:10563000240042004200420042002400180078008A
:10564000440044004400780040004000400018003E
:10565000240042004200420042002C001A00780060
:1056600044004400780050004800440042003800E4
:1056700044004000380004004400440038007C002E
:105680001000100010001000100010001000420068
:105690004200420042004200420024001800440040
:1056A000440028002800280028002800100092004C
:1056B000AA00AA00AA00AA00AA00AA004400420068
:1056C0002400240018001800240024004200440094
:1056D00028002800100010001000100010007C00AE
:1056E0000400080010001000200040007C001C0096
:1056F0001000100010001000100010001C0010001E
:1057000010000800080008000800040004001C0045
:105710000400040004000400040004001C00100045
:10572000280044000000000000000000000000000D
:105730000000000000000000000000000000200049
:105740001000100000000000000000000000000039
:105750000000180004001C00240024001C0020008D
:105760002000280034002400240034002800000019
:10577000000018002400200020002400180004006D
:10578000040014002C00240024002C00140000004D
:105790000000180024003C00200024001800000035
:1057A0001800100010001800100010001000000079
:1057B0001800240024001800040024001800200011
:1057C00020002800340024002400240024001000BD
:1057D0000000100010001000100010001000080061
:1057E0000000080008000800080028001000200041
:1057F000200024002800300028002400240010008D
:105800001000100010001000100010001000000028
:105810000000A600DA0092009200920092000000C0
:10582000000028003400240024002400240000008C
:1058300000001800240024002400240018000000A8
:105840002800340024003800200020002000000040
:1058500014002C0024001C000400040004000000BC
:1058600000002C003000200020002000200000005C
:105870000000180024001000080024001800000098
:105880001000380010001000100010001800000078
:10589000000024002400240024002C001400000038
:1058A00000004400440028002800280010000000E8
:1058B00000009200AA00AA00AA00AA00440000006A
:1058C00000004400280010001000280044000000E0
:1058D0002800280028001000100010001000000010
:1058E00000003C0004000800100020003C00000004
:1058F0000800100010002000100010000800100028
:105900001000100010001000100010001000000027
:105910001000080008000400080008001000000043
:1059200000000000600092000C0000000000FF007A
:10593000FF00FF00FF00FF00FF00FF00FF0000006E
:105940000D0A3E3E507265737320616E796B657906
:1059500020746F20636F6E74696E75652E2E2E0D28
:105960000A0000000D0A3D3D3D3D3D3D3D3D3D3DB4
:105970003D3D3D3D3D3D3D3D3D3D3D3D3D3D3D3D57
:105980003D3D3D0D0A0000003E3E44697669646578
:105990000D0A00003E3E4D756C7469706C650D0A11
:1059A000000000003E3E4D6F64756C650D0A0000FE
:1059B0003E3E506C75730D0A000000003E3E53756C
:1059C0006274726163740D0A000000000D0A000029
:1059D0004E756D62657220326E643A2000000000E0
:1059E0005F43686F6F736520796F7572206F707495
:1059F000696F6E28312C322C2E2E293A0D0A312E49
:105A00002053747564656E7420696E666F0D0A327A
:105A10002E204261736963206F7065726174696FD3
:105A20006E0D0A332E2053696D706C65206C6564B1
:105A30000D0A342E20416476616E6365206C6564C6
:105A40000D0A352E204361726F203378330D0A36EC
:105A50002E20417564696F0D0A53656C6563743A55
:105A600020000000526573756C743A20000000003D
:105A70004E756D626572203173743A20000000002B
:105A8000546865206E657874207475726E20697331
:105A9000200000005468652077696E6E6572206989
:105AA000732000003E3E496E70757420696E766109
:105AB0006C69642C20706C6561736520696E70750B
:105AC0007420616761696E21000000005374756481
:105AD000656E7420313A0D0A49443A20313435322A
